{
  "contractName": "BaseCollection",
  "abi": [
    {
      "constant": true,
      "inputs": [],
      "name": "karmaCoin",
      "outputs": [
        {
          "name": "",
          "type": "address"
        }
      ],
      "payable": false,
      "stateMutability": "view",
      "type": "function"
    },
    {
      "constant": true,
      "inputs": [],
      "name": "gyanCoin",
      "outputs": [
        {
          "name": "",
          "type": "address"
        }
      ],
      "payable": false,
      "stateMutability": "view",
      "type": "function"
    },
    {
      "inputs": [
        {
          "name": "_karma",
          "type": "address"
        },
        {
          "name": "_gyan",
          "type": "address"
        }
      ],
      "payable": false,
      "stateMutability": "nonpayable",
      "type": "constructor"
    },
    {
      "constant": false,
      "inputs": [
        {
          "name": "_id",
          "type": "bytes32"
        },
        {
          "name": "_teacherAddress",
          "type": "address"
        },
        {
          "name": "_type",
          "type": "bytes32"
        },
        {
          "name": "_hash",
          "type": "bytes32"
        },
        {
          "name": "_academicGyan",
          "type": "uint256"
        },
        {
          "name": "_nonAcademicGyan",
          "type": "uint256"
        },
        {
          "name": "_assessmentRuleKeys",
          "type": "bytes32[]"
        },
        {
          "name": "_assessmentRuleValues",
          "type": "uint256[]"
        }
      ],
      "name": "create",
      "outputs": [
        {
          "name": "",
          "type": "bool"
        }
      ],
      "payable": false,
      "stateMutability": "nonpayable",
      "type": "function"
    },
    {
      "constant": true,
      "inputs": [
        {
          "name": "_id",
          "type": "bytes32"
        }
      ],
      "name": "getData",
      "outputs": [
        {
          "name": "",
          "type": "bytes32"
        },
        {
          "name": "",
          "type": "bytes32"
        },
        {
          "name": "",
          "type": "bytes32[]"
        },
        {
          "name": "",
          "type": "uint256"
        },
        {
          "name": "",
          "type": "uint256"
        },
        {
          "name": "",
          "type": "address"
        },
        {
          "name": "",
          "type": "uint256"
        }
      ],
      "payable": false,
      "stateMutability": "view",
      "type": "function"
    },
    {
      "constant": true,
      "inputs": [
        {
          "name": "_id",
          "type": "bytes32"
        }
      ],
      "name": "getTeacher",
      "outputs": [
        {
          "name": "",
          "type": "address"
        }
      ],
      "payable": false,
      "stateMutability": "view",
      "type": "function"
    },
    {
      "constant": true,
      "inputs": [
        {
          "name": "_id",
          "type": "bytes32"
        }
      ],
      "name": "getHash",
      "outputs": [
        {
          "name": "",
          "type": "bytes32"
        }
      ],
      "payable": false,
      "stateMutability": "view",
      "type": "function"
    },
    {
      "constant": true,
      "inputs": [
        {
          "name": "_id",
          "type": "bytes32"
        }
      ],
      "name": "getGyan",
      "outputs": [
        {
          "name": "",
          "type": "uint256"
        }
      ],
      "payable": false,
      "stateMutability": "view",
      "type": "function"
    },
    {
      "constant": true,
      "inputs": [
        {
          "name": "_id",
          "type": "bytes32"
        }
      ],
      "name": "getAcademicGyan",
      "outputs": [
        {
          "name": "",
          "type": "uint256"
        }
      ],
      "payable": false,
      "stateMutability": "view",
      "type": "function"
    },
    {
      "constant": true,
      "inputs": [
        {
          "name": "_id",
          "type": "bytes32"
        }
      ],
      "name": "getNonAcademicGyan",
      "outputs": [
        {
          "name": "",
          "type": "uint256"
        }
      ],
      "payable": false,
      "stateMutability": "view",
      "type": "function"
    },
    {
      "constant": true,
      "inputs": [
        {
          "name": "_id",
          "type": "bytes32"
        }
      ],
      "name": "getType",
      "outputs": [
        {
          "name": "",
          "type": "bytes32"
        }
      ],
      "payable": false,
      "stateMutability": "view",
      "type": "function"
    },
    {
      "constant": true,
      "inputs": [
        {
          "name": "_id",
          "type": "bytes32"
        }
      ],
      "name": "getParticipants",
      "outputs": [
        {
          "name": "",
          "type": "address[]"
        }
      ],
      "payable": false,
      "stateMutability": "view",
      "type": "function"
    },
    {
      "constant": true,
      "inputs": [
        {
          "name": "_id",
          "type": "bytes32"
        },
        {
          "name": "_participantAddress",
          "type": "address"
        }
      ],
      "name": "getResultOf",
      "outputs": [
        {
          "name": "",
          "type": "bytes32"
        }
      ],
      "payable": false,
      "stateMutability": "view",
      "type": "function"
    },
    {
      "constant": true,
      "inputs": [
        {
          "name": "_id",
          "type": "bytes32"
        },
        {
          "name": "_assessmentRule",
          "type": "bytes32"
        }
      ],
      "name": "getAssessmentValueOf",
      "outputs": [
        {
          "name": "",
          "type": "uint256"
        }
      ],
      "payable": false,
      "stateMutability": "view",
      "type": "function"
    },
    {
      "constant": false,
      "inputs": [
        {
          "name": "_id",
          "type": "bytes32"
        },
        {
          "name": "_participantAddress",
          "type": "address"
        },
        {
          "name": "_burnAddress",
          "type": "address"
        }
      ],
      "name": "join",
      "outputs": [
        {
          "name": "",
          "type": "bool"
        }
      ],
      "payable": false,
      "stateMutability": "nonpayable",
      "type": "function"
    },
    {
      "constant": false,
      "inputs": [
        {
          "name": "_id",
          "type": "bytes32"
        },
        {
          "name": "_participantAddress",
          "type": "address"
        },
        {
          "name": "_assessmentRule",
          "type": "bytes32"
        }
      ],
      "name": "assess",
      "outputs": [
        {
          "name": "",
          "type": "bool"
        }
      ],
      "payable": false,
      "stateMutability": "nonpayable",
      "type": "function"
    },
    {
      "constant": true,
      "inputs": [
        {
          "name": "_gyan",
          "type": "uint256"
        }
      ],
      "name": "getKarmaToBurn",
      "outputs": [
        {
          "name": "",
          "type": "uint256"
        }
      ],
      "payable": false,
      "stateMutability": "pure",
      "type": "function"
    },
    {
      "constant": true,
      "inputs": [
        {
          "name": "_totalAcademicGyan",
          "type": "uint256"
        },
        {
          "name": "_percentGyan",
          "type": "uint256"
        }
      ],
      "name": "getAssessedAcademicGyan",
      "outputs": [
        {
          "name": "",
          "type": "uint256"
        }
      ],
      "payable": false,
      "stateMutability": "pure",
      "type": "function"
    }
  ],
  "bytecode": "0x608060405234801561001057600080fd5b50604051604080611a348339810180604052810190808051906020019092919080519060200190929190505050600073ffffffffffffffffffffffffffffffffffffffff168273ffffffffffffffffffffffffffffffffffffffff161415151561007957600080fd5b600073ffffffffffffffffffffffffffffffffffffffff168173ffffffffffffffffffffffffffffffffffffffff16141515156100b557600080fd5b816000806101000a81548173ffffffffffffffffffffffffffffffffffffffff021916908373ffffffffffffffffffffffffffffffffffffffff16021790555080600160006101000a81548173ffffffffffffffffffffffffffffffffffffffff021916908373ffffffffffffffffffffffffffffffffffffffff16021790555050506118ed806101476000396000f3006080604052600436106100f1576000357c0100000000000000000000000000000000000000000000000000000000900463ffffffff16806306b0dd2e146100f65780630b0235be1461016d5780630d3f8980146101f357806318de998f146103125780631d5fb26a14610369578063397a7e91146103d65780633cf5040a1461041b57806354f6127f1461046857806355ce3d1d1461055457806376586fd3146105dd5780637f2aeea41461064e5780639314ddb31461069b57806396f99b6e146106dc578063a1983fe114610721578063a605002f14610774578063cc41898e146107b9578063e9f9f17814610804575b600080fd5b34801561010257600080fd5b506101536004803603810190808035600019169060200190929190803573ffffffffffffffffffffffffffffffffffffffff169060200190929190803560001916906020019092919050505061085b565b604051808215151515815260200191505060405180910390f35b34801561017957600080fd5b5061019c6004803603810190808035600019169060200190929190505050610c6e565b6040518080602001828103825283818151815260200191508051906020019060200280838360005b838110156101df5780820151818401526020810190506101c4565b505050509050019250505060405180910390f35b3480156101ff57600080fd5b506102f86004803603810190808035600019169060200190929190803573ffffffffffffffffffffffffffffffffffffffff1690602001909291908035600019169060200190929190803560001916906020019092919080359060200190929190803590602001909291908035906020019082018035906020019080806020026020016040519081016040528093929190818152602001838360200280828437820191505050505050919291929080359060200190820180359060200190808060200260200160405190810160405280939291908181526020018383602002808284378201915050505050509192919290505050610d1a565b604051808215151515815260200191505060405180910390f35b34801561031e57600080fd5b50610327611125565b604051808273ffffffffffffffffffffffffffffffffffffffff1673ffffffffffffffffffffffffffffffffffffffff16815260200191505060405180910390f35b34801561037557600080fd5b506103b86004803603810190808035600019169060200190929190803573ffffffffffffffffffffffffffffffffffffffff16906020019092919050505061114a565b60405180826000191660001916815260200191505060405180910390f35b3480156103e257600080fd5b5061040560048036038101908080356000191690602001909291905050506111b0565b6040518082815260200191505060405180910390f35b34801561042757600080fd5b5061044a60048036038101908080356000191690602001909291905050506111d8565b60405180826000191660001916815260200191505060405180910390f35b34801561047457600080fd5b506104976004803603810190808035600019169060200190929190505050611200565b6040518088600019166000191681526020018760001916600019168152602001806020018681526020018581526020018473ffffffffffffffffffffffffffffffffffffffff1673ffffffffffffffffffffffffffffffffffffffff168152602001838152602001828103825287818151815260200191508051906020019060200280838360005b8381101561053a57808201518184015260208101905061051f565b505050509050019850505050505050505060405180910390f35b34801561056057600080fd5b506105c36004803603810190808035600019169060200190929190803573ffffffffffffffffffffffffffffffffffffffff169060200190929190803573ffffffffffffffffffffffffffffffffffffffff169060200190929190505050611372565b604051808215151515815260200191505060405180910390f35b3480156105e957600080fd5b5061060c60048036038101908080356000191690602001909291905050506116e9565b604051808273ffffffffffffffffffffffffffffffffffffffff1673ffffffffffffffffffffffffffffffffffffffff16815260200191505060405180910390f35b34801561065a57600080fd5b5061067d6004803603810190808035600019169060200190929190505050611731565b60405180826000191660001916815260200191505060405180910390f35b3480156106a757600080fd5b506106c660048036038101908080359060200190929190505050611759565b6040518082815260200191505060405180910390f35b3480156106e857600080fd5b5061070b6004803603810190808035600019169060200190929190505050611763565b6040518082815260200191505060405180910390f35b34801561072d57600080fd5b5061075e600480360381019080803560001916906020019092919080356000191690602001909291905050506117ab565b6040518082815260200191505060405180910390f35b34801561078057600080fd5b506107a360048036038101908080356000191690602001909291905050506117ed565b6040518082815260200191505060405180910390f35b3480156107c557600080fd5b506107ee6004803603810190808035906020019092919080359060200190929190505050611815565b6040518082815260200191505060405180910390f35b34801561081057600080fd5b50610819611845565b604051808273ffffffffffffffffffffffffffffffffffffffff1673ffffffffffffffffffffffffffffffffffffffff16815260200191505060405180910390f35b60008060007f01000000000000000000000000000000000000000000000000000000000000000285600060208110151561089157fe5b1a7f0100000000000000000000000000000000000000000000000000000000000000027effffffffffffffffffffffffffffffffffffffffffffffffffffffffffffff1916141515156108e357600080fd5b600073ffffffffffffffffffffffffffffffffffffffff168473ffffffffffffffffffffffffffffffffffffffff161415151561091f57600080fd5b6000600260008760001916600019168152602001908152602001600020600801600085600019166000191681526020019081526020016000205411151561096557600080fd5b6109c4600260008760001916600019168152602001908152602001600020600201546002600088600019166000191681526020019081526020016000206008016000866000191660001916815260200190815260200160002054611815565b9050600160009054906101000a900473ffffffffffffffffffffffffffffffffffffffff1673ffffffffffffffffffffffffffffffffffffffff1663da1919b3856002600089600019166000191681526020019081526020016000206003015484016040518363ffffffff167c0100000000000000000000000000000000000000000000000000000000028152600401808373ffffffffffffffffffffffffffffffffffffffff1673ffffffffffffffffffffffffffffffffffffffff16815260200182815260200192505050600060405180830381600087803b158015610aab57600080fd5b505af1158015610abf573d6000803e3d6000fd5b50505050600160009054906101000a900473ffffffffffffffffffffffffffffffffffffffff1673ffffffffffffffffffffffffffffffffffffffff1663da1919b360026000886000191660001916815260200190815260200160002060040160009054906101000a900473ffffffffffffffffffffffffffffffffffffffff166002600089600019166000191681526020019081526020016000206003015484016040518363ffffffff167c0100000000000000000000000000000000000000000000000000000000028152600401808373ffffffffffffffffffffffffffffffffffffffff1673ffffffffffffffffffffffffffffffffffffffff16815260200182815260200192505050600060405180830381600087803b158015610be657600080fd5b505af1158015610bfa573d6000803e3d6000fd5b5050505082600260008760001916600019168152602001908152602001600020600b0160008673ffffffffffffffffffffffffffffffffffffffff1673ffffffffffffffffffffffffffffffffffffffff168152602001908152602001600020816000191690555060019150509392505050565b6060600260008360001916600019168152602001908152602001600020600701805480602002602001604051908101604052809291908181526020018280548015610d0e57602002820191906000526020600020905b8160009054906101000a900473ffffffffffffffffffffffffffffffffffffffff1673ffffffffffffffffffffffffffffffffffffffff1681526020019060010190808311610cc4575b50505050509050919050565b60008060007f0100000000000000000000000000000000000000000000000000000000000000028a6000602081101515610d5057fe5b1a7f0100000000000000000000000000000000000000000000000000000000000000027effffffffffffffffffffffffffffffffffffffffffffffffffffffffffffff191614151515610da257600080fd5b600073ffffffffffffffffffffffffffffffffffffffff168973ffffffffffffffffffffffffffffffffffffffff1614151515610dde57600080fd5b60007f010000000000000000000000000000000000000000000000000000000000000002886000602081101515610e1157fe5b1a7f0100000000000000000000000000000000000000000000000000000000000000027effffffffffffffffffffffffffffffffffffffffffffffffffffffffffffff191614151515610e6357600080fd5b60007f010000000000000000000000000000000000000000000000000000000000000002876000602081101515610e9657fe5b1a7f0100000000000000000000000000000000000000000000000000000000000000027effffffffffffffffffffffffffffffffffffffffffffffffffffffffffffff191614151515610ee857600080fd5b600086111515610ef757600080fd5b600085111515610f0657600080fd5b82518451141515610f1657600080fd5b88600260008c6000191660001916815260200190815260200160002060040160006101000a81548173ffffffffffffffffffffffffffffffffffffffff021916908373ffffffffffffffffffffffffffffffffffffffff16021790555086600260008c60001916600019168152602001908152602001600020600001816000191690555087600260008c60001916600019168152602001908152602001600020600101816000191690555085600260008c600019166000191681526020019081526020016000206002018190555084600260008c600019166000191681526020019081526020016000206003018190555042600260008c6000191660001916815260200190815260200160002060050181905550600090505b835181101561111457828181518110151561104657fe5b90602001906020020151600260008c600019166000191681526020019081526020016000206008016000868481518110151561107e57fe5b906020019060200201516000191660001916815260200190815260200160002081905550600260008b6000191660001916815260200190815260200160002060090184828151811015156110ce57fe5b906020019060200201519080600181540180825580915050906001820390600052602060002001600090919290919091509060001916905550808060010191505061102f565b600191505098975050505050505050565b6000809054906101000a900473ffffffffffffffffffffffffffffffffffffffff1681565b6000600260008460001916600019168152602001908152602001600020600b0160008373ffffffffffffffffffffffffffffffffffffffff1673ffffffffffffffffffffffffffffffffffffffff16815260200190815260200160002054905092915050565b6000600260008360001916600019168152602001908152602001600020600201549050919050565b6000600260008360001916600019168152602001908152602001600020600001549050919050565b600080606060008060008060026000896000191660001916815260200190815260200160002060010154600260008a6000191660001916815260200190815260200160002060000154600260008b60001916600019168152602001908152602001600020600901600260008c6000191660001916815260200190815260200160002060020154600260008d6000191660001916815260200190815260200160002060030154600260008e6000191660001916815260200190815260200160002060040160009054906101000a900473ffffffffffffffffffffffffffffffffffffffff16600260008f60001916600019168152602001908152602001600020600501548480548060200260200160405190810160405280929190818152602001828054801561135257602002820191906000526020600020905b8154600019168152602001906001019080831161133a575b505050505094509650965096509650965096509650919395979092949650565b6000807f0100000000000000000000000000000000000000000000000000000000000000028460006020811015156113a657fe5b1a7f0100000000000000000000000000000000000000000000000000000000000000027effffffffffffffffffffffffffffffffffffffffffffffffffffffffffffff1916141515156113f857600080fd5b600073ffffffffffffffffffffffffffffffffffffffff168373ffffffffffffffffffffffffffffffffffffffff161415151561143457600080fd5b600073ffffffffffffffffffffffffffffffffffffffff168273ffffffffffffffffffffffffffffffffffffffff161415151561147057600080fd5b600060026000866000191660001916815260200190815260200160002060060160008573ffffffffffffffffffffffffffffffffffffffff1673ffffffffffffffffffffffffffffffffffffffff168152602001908152602001600020541415156114da57600080fd5b6000809054906101000a900473ffffffffffffffffffffffffffffffffffffffff1673ffffffffffffffffffffffffffffffffffffffff166379cc67908361155f60026000896000191660001916815260200190815260200160002060030154600260008a600019166000191681526020019081526020016000206002015401611759565b6040518363ffffffff167c0100000000000000000000000000000000000000000000000000000000028152600401808373ffffffffffffffffffffffffffffffffffffffff1673ffffffffffffffffffffffffffffffffffffffff16815260200182815260200192505050600060405180830381600087803b1580156115e457600080fd5b505af11580156115f8573d6000803e3d6000fd5b505050504260026000866000191660001916815260200190815260200160002060060160008573ffffffffffffffffffffffffffffffffffffffff1673ffffffffffffffffffffffffffffffffffffffff168152602001908152602001600020819055506002600085600019166000191681526020019081526020016000206007018390806001815401808255809150509060018203906000526020600020016000909192909190916101000a81548173ffffffffffffffffffffffffffffffffffffffff021916908373ffffffffffffffffffffffffffffffffffffffff16021790555050600190509392505050565b600060026000836000191660001916815260200190815260200160002060040160009054906101000a900473ffffffffffffffffffffffffffffffffffffffff169050919050565b6000600260008360001916600019168152602001908152602001600020600101549050919050565b6000819050919050565b60006002600083600019166000191681526020019081526020016000206003015460026000846000191660001916815260200190815260200160002060020154019050919050565b60006002600084600019166000191681526020019081526020016000206008016000836000191660001916815260200190815260200160002054905092915050565b6000600260008360001916600019168152602001908152602001600020600301549050919050565b600061183d606461182f848661186b90919063ffffffff16565b6118a690919063ffffffff16565b905092915050565b600160009054906101000a900473ffffffffffffffffffffffffffffffffffffffff1681565b6000806000841415611880576000915061189f565b828402905082848281151561189157fe5b0414151561189b57fe5b8091505b5092915050565b60008082848115156118b457fe5b04905080915050929150505600a165627a7a7230582024cbced5dbc27ab246bf6764b206418767ede2cebc04ec6a43f750548098e44e0029",
  "source": "pragma solidity ^0.4.23;\n\nimport \"./CollectionBasic.sol\";\nimport \"../KarmaCoin.sol\";\nimport \"../GyanCoin.sol\";\n\n/**\n * @title BaseCollection\n * @author Aakash Bansal @ Peerbuds Inc.\n * @dev Basic version of collection contract\n * @dev Handled collection create, joining and assessment\n */\ncontract BaseCollection is CollectionBasic {\n\n\tusing SafeMath for uint256;\n\n\tKarmaCoin public karmaCoin;\n\tGyanCoin public gyanCoin;\n\n\tstruct Collection {\n\t\tbytes32 hash;\n\t\tbytes32 _type;\n\t\tuint256 academicGyan;\n\t\tuint256 nonAcademicGyan;\n\t\taddress teacher;\n\t\tuint256 timestamp;\n\t\tmapping(address => uint256) participants;\n\t\taddress[] participantIndex;\n\t\tmapping(bytes32 => uint256) assessmentRules;\n\t\tbytes32[] assessmentRuleKeys;\n\t\tuint256[] assessmentRuleValues;\n\t\tmapping(address => bytes32) results;\n\t}\n\n\tmapping(bytes32 => Collection) collections;\n\n\tfunction BaseCollection(KarmaCoin _karma, GyanCoin _gyan) {\n\t\trequire(_karma != address(0));\n\t\trequire(_gyan != address(0));\n\n\t\tkarmaCoin = _karma;\n\t\tgyanCoin = _gyan;\n\t}\n\n\tfunction create(bytes32 _id, address _teacherAddress, bytes32 _type, bytes32 _hash, uint256 _academicGyan, uint256 _nonAcademicGyan, bytes32[] _assessmentRuleKeys, uint256[] _assessmentRuleValues) public returns (bool) {\n\t\trequire(_id[0] != 0);\n\t\trequire(_teacherAddress != address(0));\n\t\trequire(_type[0] != 0);\n\t\trequire(_hash[0] != 0);\n\t\trequire(_academicGyan > 0);\n\t\trequire(_nonAcademicGyan > 0);\n\t\trequire(_assessmentRuleKeys.length == _assessmentRuleValues.length);\n\n\t\tcollections[_id].teacher = _teacherAddress;\n\t\tcollections[_id].hash = _hash;\n\t\tcollections[_id]._type = _type;\n\t\tcollections[_id].academicGyan = _academicGyan;\n\t\tcollections[_id].nonAcademicGyan = _nonAcademicGyan;\n\t\tcollections[_id].timestamp = now;\n\t\t// Map _assessmentRules array to contract variables\n\t\tfor (uint i = 0; i < _assessmentRuleKeys.length; i++) {\n\t\t\tcollections[_id].assessmentRules[_assessmentRuleKeys[i]] = _assessmentRuleValues[i];\n\t\t\tcollections[_id].assessmentRuleKeys.push(_assessmentRuleKeys[i]);\n\t\t}\n\t\treturn true;\n\t}\n\n\tfunction getData(bytes32 _id) public view returns (bytes32, bytes32, bytes32[], uint256, uint256, address, uint256) {\n\t\t// Solidity does not yet support returning structs to web3\n\t\treturn (collections[_id]._type, collections[_id].hash, collections[_id].assessmentRuleKeys, collections[_id].academicGyan, collections[_id].nonAcademicGyan , collections[_id].teacher, collections[_id].timestamp);\n\t}\n\n\tfunction getTeacher(bytes32 _id) public view returns (address) {\n\t\treturn collections[_id].teacher;\n\t}\n\n\tfunction getHash(bytes32 _id) public view returns (bytes32) {\n\t\treturn collections[_id].hash;\n\t}\n\n\tfunction getGyan(bytes32 _id) public view returns (uint256) {\n\t\treturn (collections[_id].academicGyan + collections[_id].nonAcademicGyan);\n\t}\n\n\tfunction getAcademicGyan(bytes32 _id) public view returns (uint256) {\n\t\treturn collections[_id].academicGyan;\n\t}\n\n\tfunction getNonAcademicGyan(bytes32 _id) public view returns (uint256) {\n\t\treturn collections[_id].nonAcademicGyan;\n\t}\n\n\tfunction getType(bytes32 _id) public view returns (bytes32) {\n\t\treturn collections[_id]._type;\n\t}\n\n\tfunction getParticipants(bytes32 _id) public view returns (address[]) {\n\t\treturn collections[_id].participantIndex;\n\t}\n\n\tfunction getResultOf(bytes32 _id, address _participantAddress) public view returns (bytes32) {\n\t\treturn collections[_id].results[_participantAddress];\n\t}\n\n\tfunction getAssessmentValueOf(bytes32 _id, bytes32 _assessmentRule) public view returns (uint256) {\n\t\treturn collections[_id].assessmentRules[_assessmentRule];\n\t}\n\n\tfunction join(bytes32 _id, address _participantAddress, address _burnAddress) public returns (bool) {\n\t\trequire(_id[0] != 0);\n\t\trequire(_participantAddress != address(0));\n\t\trequire(_burnAddress != address(0));\n\t\t// Make sure this participant does not already exist for this collection\n\t\trequire(collections[_id].participants[_participantAddress] == 0);\n\n\t\tkarmaCoin.burnFrom(_burnAddress, getKarmaToBurn(collections[_id].academicGyan + collections[_id].nonAcademicGyan));\n\t\tcollections[_id].participants[_participantAddress] = now;\n\t\tcollections[_id].participantIndex.push(_participantAddress);\n\t\treturn true;\n\t}\n\n\tfunction assess(bytes32 _id, address _participantAddress, bytes32 _assessmentRule) public returns (bool) {\n\t\trequire(_id[0] != 0);\n\t\trequire(_participantAddress != address(0));\n\t\trequire(collections[_id].assessmentRules[_assessmentRule] > 0);\n\n\t\t// Add Gyan to participant and teacher wallets on assessment\n\t\tuint256 assessedAcademicGyan = getAssessedAcademicGyan(collections[_id].academicGyan, collections[_id].assessmentRules[_assessmentRule]);\n\t\tgyanCoin.mintFor(_participantAddress, assessedAcademicGyan + collections[_id].nonAcademicGyan);\n\t\tgyanCoin.mintFor(collections[_id].teacher, assessedAcademicGyan + collections[_id].nonAcademicGyan);\n\t\tcollections[_id].results[_participantAddress] = _assessmentRule;\n\t\treturn true;\n\t}\n\n\t// Pure functions\n\n\tfunction getKarmaToBurn(uint256 _gyan) pure returns (uint256) {\n\t\t//TODO : put logic here to dynamically calculate Karma value based on gyan\n\t\treturn _gyan;\n\t}\n\n\tfunction getAssessedAcademicGyan(uint256 _totalAcademicGyan, uint256 _percentGyan) pure returns (uint256) {\n\t\treturn (_totalAcademicGyan.mul(_percentGyan)).div(100);\n\t}\n\n}",
  "sourcePath": "/Users/aakash/WebstormProjects/pbether/contracts/Collection/BaseCollection.sol",
  "compiler": {
    "name": "solc",
    "version": "0.4.23+commit.124ca40d.Emscripten.clang"
  },
  "schemaVersion": "2.0.0",
  "updatedAt": "2018-05-13T21:31:22.118Z"
}